:2000000019C03FC03EC03DC03CC03BC03AC039C038C037C036C035C034C033C074C131C03C
:2000200030C02FC02EC02DC02CC02BC02AC029C028C027C011241FBECFEFCDBFDFE3DEBFD2
:200040008091400080934000811105C098ED21E094BF209341008CBB1FE3A0E0BFE3EDE0A0
:20006000F6E002C005900D92A032B107D9F72FE3A0E2BFE301C01D92AA32B207E1F772D104
:2000800062C2BECF0F931F93AB01BC018FB7F8940091243F1091253F2091263F3091273FEA
:2000A0008FBFEFB7F8948091243F9091253FA091263FB091273FEFBF801B910BA20BB30B3A
:2000C00084179507A607B70760F31F910F910895282F30E08C30A8F4F901EF5FF9478081F6
:2000E0008F3F79F02B503A47D901EC91B0E2EB9FF0011124FC5F9085982381E019F480E03B
:2001000008958FEF0895CF93DF9389E0E1DF81110BC0C0E3D5E789E0DBDF813029F02197C9
:20012000D1F781E090E002C090E080E0DF91CF910895CF93DF938C30A8F590E0EC01CF5F6F
:20014000D94728812F3F71F1AC014B505A47DA01EC91B0E2EB9FF0011124FC5F611125C0D1
:20016000268330812323A1F49C0127513A47D9012C913097E1F02830D0F47096E20FF11D64
:200180003FB7F8942081611115C0277F20833FBF83529A47FC018081882321F0803161F03C
:2001A0008038E1F0DF91CF9108952583DACFF0E0E0E0E6CF2860EACF8881DA019C919130A0
:2001C00059F4853010F0880F82959091010A809589238093010AE6CF880FF7CF109280062A
:2001E000E1CFCF93DF93CAE4D5E88881229661E0A0DF85E8C835D807C1F7DF91CF91089521
:20020000CF93DF93CAE4D5E88881229660E091DF85E8C835D807C1F7DF91CF910895EF923F
:20022000FF920F931F93CF93DF93982FCAE4D5E828E5E22E25E8F22E092F092E000C110BF2
:200240008881229661E090FF60E073DF15950795902FEC16FD0681F7DF91CF911F910F91D9
:20026000FF90EF900895603171058105910538F009CFE7E8F3E13197F1F700C000006150EC
:20028000710981099109A8F70895BADF60E971E080E090E0F7DEC12CD12C7601C9E1D0E0F1
:2002A000A0DFC701B601DFDFABDF8FE19EE40197F1F700C00000219799F79FEFC91AD90A2A
:2002C000E90AF90A8AE0C816D104E104F10431F7C9E1D0E086DFC701B601C5DF91DF8FE147
:2002E0009EE40197F1F700C00000219799F791E0C91AD108E108F1088FEFC816D806E806BD
:20030000F80619F2E5CF8F9381E080938D0A8FB78F93EF93FF93E0E2FFE39F9368948FEF27
:200320000DC0E89484819581805D9C4F84839583885E934080F0848395838FEF9081981BE8
:20034000919390819F4F919390819F4F919390819F4F919336F39F91FF91EF918F918FBF39
:200360008F91189588ED90E084BF90936100E0E0F6E083E582838DE0858380E2838381E0C3
:200380008083109202028093030A9EEF9093260A9093270A9BE09093000AE0E8FAE02DEFFA
:2003A00031E026A737A7118290E89283848781E180837894CAE4D5E828E535E88E01D801E8
:2003C0008D919D918D018C30D0F49927FC01EF5FF94740814F3F99F0FC01EB50FA47E081C6
:2003E000B0E2EB9FF0011124FC5F418387519A47DC018C91E80FF11D8089877F808B201793
:200400003107E9F684E08093020480911204877F80931204E6DEF4DE8AE4E82E85E8F82E45
:20042000F7018081F2E0EF0EF11C61E082DE66E470E080E090E017DFE016F10689F7888170
:20044000229660E076DE66E470E080E090E00BDFEC16FD06A1F764E670E080E090E012DE05
:20046000E0E0FFE38191882329F0DF0111978F5F8C93F8CF48DE892B99F406EC15E8D3E09F
:20048000D801CD918D01CC2309F455C0B9DE8C2F8D27C5DE66E970E080E090E0E4DEF0CFFD
:2004A000C5E0D0E06AEF70E080E090E0EBDD89E00FDE813009F043C000E315E789E008DE75
:2004C000882309F43CC001501109C1F705E010E088DE66E970E080E090E0C5DE91DE66E94A
:2004E00070E080E090E0BFDE7CDE66E970E080E090E0B9DE85DE66E970E080E090E0B3DE7C
:2005000062EC71E080E090E0AEDEFDDD892BA1F0CAE5D5E806E02396FE0133971081112328
:2005200051F06EDE812F80277ADE66E470E080E090E099DEF0CFA9DE0150110949F62197F6
:2005400009F0B0CF9ACFF894FFCF0200030004000500060007000800090039766555413258
:200560004578364932274861784361335567507D310A6136376333623D3D37612A68324648
:200580006161585961403766326861435936737677406A6333326178376874682366596174
:2005A0005F755F2D3761366178616E31417273355966403561783F417832763331317D34E6
:2005C00061367B61300050404C4D46507860376E307137706B7A023A3236377E0010108016
:2005E000000010101000001000040506070302010001020300000000000101010100000095
:20060000001020408008040201020408012053434F4E45537B736D346C6C5F6255745F622F
:0E062000797433795F31313534367D0000FF57
:00000001FF
