:2000000019C03FC03EC03DC03CC03BC03AC039C038C037C036C035C034C033C043C131C06D
:2000200030C02FC02EC02DC02CC02BC02AC029C028C027C011241FBECFEFCDBFDFE3DEBFD2
:200040008091400080934000811105C098ED21E094BF209341008CBB1FE3A0E0BFE3EAE69D
:20006000F5E002C005900D92A032B107D9F72FE3A0E2BFE301C01D92AA32B207E1F741D136
:2000800012C2BECF0F931F93AB01BC018FB7F8940091243F1091253F2091263F3091273F3A
:2000A0008FBFEFB7F8948091243F9091253FA091263FB091273FEFBF801B910BA20BB30B3A
:2000C00084179507A607B70760F31F910F910895CF93DF938C30A8F590E0EC01C25ADA4777
:2000E00028812F3F71F1AC014E5A5A47DA01EC91B0E2EB9FF0011124FC5F611125C026839C
:2001000030812323A1F49C012A5B3A47D9012C913097E1F02830D0F47096E20FF11D3FB76A
:20012000F8942081611115C0277F20833FBF865C9A47FC018081882321F0803161F08038CD
:20014000E1F0DF91CF9108952583DACFF0E0E0E0E6CF2860EACF8881DA019C91913059F46B
:20016000853010F0880F82959091010A809589238093010AE6CF880FF7CF10928006E1CF27
:20018000CF93DF93CAE2D5E88881229661E0A0DF85E8CA33D807C1F7DF91CF910895CF93D1
:2001A000DF93CAE2D5E88881229660E091DF85E8CA33D807C1F7DF91CF910895EF92FF9273
:2001C0000F931F93CF93DF93982FCAE2D5E82AE3E22E25E8F22E092F092E000C110B8881DD
:2001E000229661E090FF60E073DF15950795902FEC16FD0681F7DF91CF911F910F91FF90B4
:20020000EF900895603171058105910538F03ACFE7E8F3E13197F1F700C000006150710930
:2002200081099109A8F70895BADF60E971E080E090E028DFC12CD12C7601C2E3D0E0A0DF1F
:20024000C701B601DFDFABDF8FE19EE40197F1F700C00000219799F79FEFC91AD90AE90A16
:20026000F90A85E0C816D104E104F10431F7C2E3D0E086DFC701B601C5DF91DF8FE19EE422
:200280000197F1F700C00000219799F791E0C91AD108E108F1088FEFC816D806E806F806A1
:2002A00019F2E5CF8F9381E080938D0A8FB78F93EF93FF93E0E2FFE39F9368948FEF0DC0B9
:2002C000E89484819581805D9C4F84839583885E934080F0848395838FEF9081981B9193F2
:2002E00090819F4F919390819F4F919390819F4F919336F39F91FF91EF918F918FBF8F919E
:20030000189588ED90E084BF90936100E0E0F6E083E582838DE0858380E2838381E0808340
:20032000109202028093030A9EEF9093260A9093270A9BE09093000AE0E8FAE02DEF31E04C
:2003400026A737A7118290E89283848781E180837894CAE2D5E8DE018D919D918C30E8F42A
:200360009927FC01E25AFA4720812F3FB1F0FC01EE5AFA47E08130E2E39FF0011124AF0142
:200380005C5FFA0121838A5B9A47FC018081FA01E80FF11D8089877F808BF5E8A833BF07A7
:2003A000D9F684E08093020480911204877F80931204E6DEF4DE8AE3E82E85E8F82E0AE203
:2003C00015E8F80180810E5F1F4F61E081DE66E470E080E090E016DFE016F10691F78881CE
:2003E000229660E075DE66E470E080E090E00ADFC017D107A1F7E0E0FFE38191882329F0A0
:20040000DF0111978F5F8C93F8CF8091080403E115E8D3E082FD38C0B3DE66E470E080E0CD
:2004200090E0F0DEBCDE66E470E080E090E0EADEA7DE66E470E080E090E0E4DEB0DE66E429
:2004400070E080E090E0DEDE9BDE66E470E080E090E0D8DEA4DE66E470E080E090E0D2DE8B
:20046000CAEAD4E806E02396FE0133971081112351F095DE812F8027A1DE66E470E080E05B
:2004800090E0C0DEF0CFD0DEF801C1918F01CC23D1F385DE8C2F8D2791DE66E970E080E013
:2004A00090E0B0DEF1CFF894FFCF5541324578364932274861784361335567507D310A61AA
:2004C00036376333623D3D37612A6832466161585961403766326861435936737677406A13
:2004E000633332617837687468236659615F755F2D3761366178616E31417273355966403C
:200500003561783F417832763331317D3461367B61300050404C4D46507860376E30713730
:20052000706B7A063A3230377E000200030004000500060007000800090010108000001033
:20054000101000001000040506070302010001020300000000000101010100000000102015
:20056000408008040201020408012053434F4E45537B736D346C6C5F6255745F62797433E0
:0A058000795F31343935347D000015
:00000001FF
